:100000000C942A000C9451060C9484060C94B706A8
:100010000C943C000C943C000C943C000C943C0070
:100020000C943C000C943C000C943C000C943C0060
:100030000C943C000C943C000C943C000C943C0050
:100040000C943C000C943C000C943C000C943C0040
:100050000C943C0011241FBECFE5D8E0DEBFCDBF1D
:1000600010E0A0E6B0E001C01D92A736B107E1F7AD
:100070000E9406070C9439070C940000DF93CF937D
:10008000CDB7DEB7EAE3F0E081E08083E7E3F0E0BC
:100090001082E4E3F0E01082E1E3F0E01082EBE3B1
:1000A000F0E01082E8E3F0E01082E5E3F0E0108297
:1000B000E2E3F0E084E08083CF91DF910895DF9365
:1000C000CF9300D000D000D0CDB7DEB78A836B834A
:1000D0004C8381E089838A81843008F0DAC08B8187
:1000E000883008F0D6C08C81823008F0D2C08A8176
:1000F000282F30E03E832D838D819E8181309105B4
:1001000009F443C02D813E81223031052CF48D81CC
:100110009E81009771F0BEC02D813E812230310555
:1001200009F45FC08D819E818330910509F485C0FB
:10013000B1C08C818130A1F4AAE3B0E0EAE3F0E041
:100140008081482F8B81282F30E081E090E0022EC3
:1001500002C0880F991F0A94E2F7842B8C939AC0EF
:10016000AAE3B0E0EAE3F0E08081482F8B81282FFA
:1001700030E081E090E0022E02C0880F991F0A94BF
:10018000E2F7809584238C9385C08C818130A1F423
:10019000A7E3B0E0E7E3F0E08081482F8B81282FD0
:1001A00030E081E090E0022E02C0880F991F0A948F
:1001B000E2F7842B8C936EC0A7E3B0E0E7E3F0E0B6
:1001C0008081482F8B81282F30E081E090E0022E43
:1001D00002C0880F991F0A94E2F7809584238C93BC
:1001E00059C08C818130A1F4A4E3B0E0E4E3F0E0F5
:1001F0008081482F8B81282F30E081E090E0022E13
:1002000002C0880F991F0A94E2F7842B8C9342C096
:10021000A4E3B0E0E4E3F0E08081482F8B81282F55
:1002200030E081E090E0022E02C0880F991F0A940E
:10023000E2F7809584238C932DC08C818130A1F4CA
:10024000A1E3B0E0E1E3F0E08081482F8B81282F2B
:1002500030E081E090E0022E02C0880F991F0A94DE
:10026000E2F7842B8C9316C0A1E3B0E0E1E3F0E069
:100270008081482F8B81282F30E081E090E0022E92
:1002800002C0880F991F0A94E2F7809584238C930B
:1002900001C01982898126960FB6F894DEBF0FBE81
:1002A000CDBFCF91DF910895DF93CF9300D000D0E1
:1002B00000D0CDB7DEB78A836B834C8381E089831E
:1002C0008A81843008F0DAC08B81883008F0D6C08B
:1002D0008C81823008F0D2C08A81282F30E03E83A2
:1002E0002D838D819E818130910509F443C02D813C
:1002F0003E81223031052CF48D819E81009771F072
:10030000BEC02D813E812230310509F45FC08D8150
:100310009E818330910509F485C0B1C08C81813004
:10032000A1F4ABE3B0E0EBE3F0E08081482F8B81F8
:10033000282F30E081E090E0022E02C0880F991F44
:100340000A94E2F7842B8C939AC0ABE3B0E0EBE322
:10035000F0E08081482F8B81282F30E081E090E011
:10036000022E02C0880F991F0A94E2F78095842319
:100370008C9385C08C818130A1F4A8E3B0E0E8E3E0
:10038000F0E08081482F8B81282F30E081E090E0E1
:10039000022E02C0880F991F0A94E2F7842B8C93D7
:1003A0006EC0A8E3B0E0E8E3F0E08081482F8B81E5
:1003B000282F30E081E090E0022E02C0880F991FC4
:1003C0000A94E2F7809584238C9359C08C81813004
:1003D000A1F4A5E3B0E0E5E3F0E08081482F8B8154
:1003E000282F30E081E090E0022E02C0880F991F94
:1003F0000A94E2F7842B8C9342C0A5E3B0E0E5E3D6
:10040000F0E08081482F8B81282F30E081E090E060
:10041000022E02C0880F991F0A94E2F78095842368
:100420008C932DC08C818130A1F4A2E3B0E0E2E393
:10043000F0E08081482F8B81282F30E081E090E030
:10044000022E02C0880F991F0A94E2F7842B8C9326
:1004500016C0A2E3B0E0E2E3F0E08081482F8B8198
:10046000282F30E081E090E0022E02C0880F991F13
:100470000A94E2F7809584238C9301C019828981C4
:1004800026960FB6F894DEBF0FBECDBFCF91DF9199
:100490000895DF93CF93CDB7DEB727970FB6F894C3
:1004A000DEBF0FBECDBF8A836B835D834C8381E04B
:1004B00089838A81843008F075C08B81883008F088
:1004C00071C08A81282F30E03F832E834E815F8167
:1004D0004130510559F18E819F818230910534F46C
:1004E0002E813F812115310569F05DC04E815F810C
:1004F0004230510579F18E819F818330910509F455
:100500003DC051C0E9E3F0E08081282F30E08B81CD
:10051000882F90E0A90102C0559547958A95E2F78A
:10052000CA018170EC81FD8180833DC0E6E3F0E08B
:100530008081282F30E08B81882F90E0A90102C0B4
:10054000559547958A95E2F7CA018170EC81FD8146
:10055000808329C0E3E3F0E08081282F30E08B81A5
:10056000882F90E0A90102C0559547958A95E2F73A
:10057000CA018170EC81FD81808315C0E0E3F0E069
:100580008081282F30E08B81882F90E0A90102C064
:10059000559547958A95E2F7CA018170EC81FD81F6
:1005A000808301C01982898127960FB6F894DEBF37
:1005B0000FBECDBFCF91DF910895DF93CF93CDB71D
:1005C000DEB72D970FB6F894DEBF0FBECDBF8A837E
:1005D0006B8381E089838A81843008F06BC08B81D2
:1005E000823008F067C08A81282F30E03D872C8751
:1005F0008C859D858130910539F12C853D85223092
:1006000031052CF48C859D85009761F054C02C85B4
:100610003D852230310551F18C859D8583309105D2
:10062000B9F149C08B81813041F4EAE3F0E0908177
:10063000EAE3F0E08FEF80833EC0EAE3F0E0208160
:10064000EAE3F0E0108237C08B81813041F4E7E3C8
:10065000F0E03081E7E3F0E08FEF80832CC0E7E348
:10066000F0E08081E7E3F0E0108225C08B818130EB
:1006700041F4E4E3F0E09081E4E3F0E08FEF808385
:100680001AC0E4E3F0E02081E4E3F0E0108213C05C
:100690008B81813041F4E1E3F0E03081E1E3F0E08F
:1006A0008FEF808308C0E1E3F0E08081E1E3F0E0D8
:1006B000108201C0198289812D960FB6F894DEBF91
:1006C0000FBECDBFCF91DF910895DF93CF93CDB70C
:1006D000DEB72D970FB6F894DEBF0FBECDBF8A836D
:1006E0006B8381E089838A81843008F06BC08B81C1
:1006F000823008F067C08A81282F30E03D872C8740
:100700008C859D858130910539F12C853D85223080
:1007100031052CF48C859D85009761F054C02C85A3
:100720003D852230310551F18C859D8583309105C1
:10073000B9F149C08B81813041F4EBE3F0E0908165
:10074000EBE3F0E08FEF80833EC0EBE3F0E020814D
:10075000EBE3F0E0108237C08B81813041F4E8E3B5
:10076000F0E03081E8E3F0E08FEF80832CC0E8E335
:10077000F0E08081E8E3F0E0108225C08B818130D9
:1007800041F4E5E3F0E09081E5E3F0E08FEF808372
:100790001AC0E5E3F0E02081E5E3F0E0108213C049
:1007A0008B81813041F4E2E3F0E03081E2E3F0E07C
:1007B0008FEF808308C0E2E3F0E08081E2E3F0E0C5
:1007C000108201C0198289812D960FB6F894DEBF80
:1007D0000FBECDBFCF91DF910895DF93CF9300D0AF
:1007E00000D000D0CDB7DEB78A837C836B8381E0F5
:1007F00089838A818430D8F58A81282F30E03E832E
:100800002D838D819E8181309105E1F02D813E8186
:10081000223031052CF48D819E81009761F028C033
:100820002D813E8122303105A1F08D819E81833062
:100830009105B1F01DC0EBE3F0E08081EB81FC811C
:10084000808316C0E8E3F0E08081EB81FC81808347
:100850000FC0E5E3F0E08081EB81FC81808308C07C
:10086000E2E3F0E08081EB81FC81808301C01982AA
:10087000898126960FB6F894DEBF0FBECDBFCF910B
:10088000DF910895DF93CF9300D000D00F92CDB7C2
:10089000DEB78A836B8381E089838A81843098F50F
:1008A0008A81282F30E03D832C838C819D8181308B
:1008B0009105D1F02C813D81223031052CF48C81C1
:1008C0009D81009761F020C02C813D81223031054F
:1008D00081F08C819D818330910581F015C0EBE31F
:1008E000F0E08B81808310C0E8E3F0E08B818083AF
:1008F0000BC0E5E3F0E08B81808306C0E2E3F0E02B
:100900008B81808301C0198289810F900F900F9095
:100910000F900F90CF91DF910895DF93CF9300D088
:100920000F92CDB7DEB789836A838981863009F05B
:1009300095C08A81813011F5A5E5B0E0E5E5F0E0EC
:1009400080818E7F8C93A5E5B0E0E5E5F0E08081C5
:100950008D7F8C93ABE5B0E0EBE5F0E08081482F34
:100960008981282F30E081E090E0022E02C0880FBC
:10097000991F0A94E2F7842B8C9347C18A818230B5
:1009800011F5A5E5B0E0E5E5F0E0808181608C93AC
:10099000A5E5B0E0E5E5F0E080818D7F8C93ABE5E7
:1009A000B0E0EBE5F0E08081482F8981282F30E02E
:1009B00081E090E0022E02C0880F991F0A94E2F7AE
:1009C000842B8C9322C18A81833011F5A5E5B0E098
:1009D000E5E5F0E080818E7F8C93A5E5B0E0E5E56C
:1009E000F0E0808182608C93ABE5B0E0EBE5F0E075
:1009F0008081482F8981282F30E081E090E0022E0D
:100A000002C0880F991F0A94E2F7842B8C93FDC0D3
:100A10008A81843009F0F9C0A5E5B0E0E5E5F0E0B1
:100A2000808181608C93A5E5B0E0E5E5F0E0808110
:100A300082608C93ABE5B0E0EBE5F0E08081482F7D
:100A40008981282F30E081E090E0022E02C0880FDB
:100A5000991F0A94E2F7842B8C93D7C08981873041
:100A600009F095C08A81813011F5A5E5B0E0E5E592
:100A7000F0E080818B7F8C93A5E5B0E0E5E5F0E0C8
:100A80008081877F8C93ABE5B0E0EBE5F0E080817F
:100A9000482F8981282F30E081E090E0022E02C0AB
:100AA000880F991F0A94E2F7842B8C93AEC08A8139
:100AB000823011F5A5E5B0E0E5E5F0E080818460E5
:100AC0008C93A5E5B0E0E5E5F0E08081877F8C932D
:100AD000ABE5B0E0EBE5F0E08081482F8981282F7D
:100AE00030E081E090E0022E02C0880F991F0A9446
:100AF000E2F7842B8C9389C08A81833011F5A5E5B8
:100B0000B0E0E5E5F0E080818B7F8C93A5E5B0E077
:100B1000E5E5F0E0808188608C93ABE5B0E0EBE543
:100B2000F0E08081482F8981282F30E081E090E03B
:100B3000022E02C0880F991F0A94E2F7842B8C932F
:100B400064C08A81843009F060C0A5E5B0E0E5E5C5
:100B5000F0E0808184608C93A5E5B0E0E5E5F0E00D
:100B6000808188608C93ABE5B0E0EBE5F0E08081BC
:100B7000482F8981282F30E081E090E0022E02C0CA
:100B8000880F991F0A94E2F7842B8C933EC08981C9
:100B90008530D9F58A818330D9F4A4E5B0E0E4E565
:100BA000F0E080818F7B8C93ABE5B0E0EBE5F0E08B
:100BB0008081482F8981282F30E081E090E0022E4B
:100BC00002C0880F991F0A94E2F7842B8C931DC0F2
:100BD0008A818430D1F4A4E5B0E0E4E5F0E08081DE
:100BE00080648C93ABE5B0E0EBE5F0E08081482FCA
:100BF0008981282F30E081E090E0022E02C0880F2A
:100C0000991F0A94E2F7842B8C930F900F900F900A
:100C1000CF91DF910895DF93CF930F92CDB7DEB7D9
:100C20008983ABE5B0E0EBE5F0E08081482F898176
:100C3000282F30E081E090E0022E02C0880F991F3B
:100C40000A94E2F7809584238C930F90CF91DF91E3
:100C50000895DF93CF9300D000D0CDB7DEB78A835D
:100C60007C836B8381E089838A81833088F48B81E4
:100C70009C81009769F08A81882F90E0880F991FE6
:100C8000FC01E05AFF4F8B819C819183808301C0DE
:100C9000198289810F900F900F900F90CF91DF9163
:100CA00008951F920F920FB60F9211242F933F9326
:100CB0004F935F936F937F938F939F93AF93BF9364
:100CC000EF93FF93DF93CF93CDB7DEB780916000B2
:100CD00090916100009729F0E0916000F09161002F
:100CE0000995CF91DF91FF91EF91BF91AF919F91C6
:100CF0008F917F916F915F914F913F912F910F90C5
:100D00000FBE0F901F9018951F920F920FB60F9263
:100D100011242F933F934F935F936F937F938F9300
:100D20009F93AF93BF93EF93FF93DF93CF93CDB791
:100D3000DEB78091620090916300009729F0E09106
:100D40006200F09163000995CF91DF91FF91EF91DF
:100D5000BF91AF919F918F917F916F915F914F91D3
:100D60003F912F910F900FBE0F901F9018951F92DB
:100D70000F920FB60F9211242F933F934F935F93CF
:100D80006F937F938F939F93AF93BF93EF93FF9353
:100D9000DF93CF93CDB7DEB780916400909165006B
:100DA000009729F0E0916400F09165000995CF91DA
:100DB000DF91FF91EF91BF91AF919F918F917F91C3
:100DC0006F915F914F913F912F910F900FBE0F90B8
:100DD0001F901895DF93CF93CDB7DEB7AFE5B0E0A6
:100DE000EFE5F0E0808180688C93CF91DF910895EA
:100DF000DF93CF93CDB7DEB7AFE5B0E0EFE5F0E03E
:100E000080818F778C93CF91DF910895DF93CF937B
:100E1000CDB7DEB70E943E002AE137E080E090E0E7
:100E2000B9010E94290686E062E00E948D040E94BA
:100E3000EA06FFCFDF93CF93CDB7DEB78091660090
:100E4000882349F480E060E040E00E94540181E0A2
:100E5000809366000BC080916600813039F480E099
:100E600060E041E00E94540110926600CF91DF9152
:060E70000895F894FFCF85
:00000001FF
