:100000000C942A000C9434000C9434000C943400AA
:100010000C9434000C9434000C9434000C94340090
:100020000C9434000C9434000C9434000C94340080
:100030000C9434000C9434000C9434000C94340070
:100040000C9434000C9434000C9434000C94340060
:100050000C94340011241FBECFE5D8E0DEBFCDBF25
:100060000E9436000C9456000C940000DF93CF934E
:10007000CDB7DEB7E1E3F0E01082E7E3F0E08FE038
:100080008083E8E3F0E01082E2E3F0E081E0808347
:10009000E0E3F0E08081882329F4E8E3F0E081E008
:1000A0008083F6CFE8E3F0E01082F2CFF894FFCF40
:00000001FF
