:100000000C942A000C9447000C9447000C94470071
:100010000C9447000C9447000C9447000C94470044
:100020000C9447000C9447000C9447000C94470034
:100030000C9447000C9447000C9447000C94470024
:100040000C9447000C9447000C9447000C94470014
:100050000C94470011241FBECFE5D8E0DEBFCDBF12
:1000600010E0A0E6B0E0ECEAFEE302C005900D92DD
:10007000A63FB107D9F710E0A6EFB0E001C01D928E
:10008000A73FB107E1F70E944F160C94541F0C9440
:100090000000EF92FF920F931F937B018C0120E0F1
:1000A00030E040E05FE40E94490388238CF0C801FF
:1000B000B70120E030E040E05FE40E94C1010E940F
:1000C000A9039B01AC01205030404040504806C07D
:1000D000C801B7010E94A9039B01AC01B901CA0183
:1000E0001F910F91FF90EF900895A0E0B0E0EBE733
:1000F000F0E00C941D1FDC012B01FA019C91923061
:1001000008F439C1EB018881823008F433C194309E
:1001100069F4843009F02FC111969C91119789815F
:10012000981709F428C1A5EDB0E025C1843009F481
:1001300021C18230A9F4923009F01DC19A01AD01AC
:1001400088E0EA010990AE01E90109929E0181501F
:10015000C1F7E201898111969C918923818308C1AD
:10016000923009F407C112962D903C901397EB0141
:100170008A819B811496AD90BD90CD90DC901797AD
:10018000EC80FD800E811F819101281B390BB90184
:1001900037FF04C066277727621B730B6032710537
:1001A0000CF061C0121613066CF537014801062EDB
:1001B00004C096948794779467940A94D2F721E0C8
:1001C00030E040E050E004C0220F331F441F551FB1
:1001D0006A95D2F721503040404050402E213F21B7
:1001E00040235123211531054105510521F021E01E
:1001F00030E040E050E079018A01E628F72808293C
:1002000019293CC0232BD1F1260E371E350146019A
:10021000062E04C096948794779467940A94D2F734
:1002200021E030E040E050E004C0220F331F441FC3
:10023000551F6A95D2F721503040404050402A2146
:100240003B214C215D21211531054105510521F04E
:1002500021E030E040E050E059016A01A628B728CB
:10026000C828D9280BC0821593052CF01C01AA249C
:10027000BB24650103C0EE24FF24870111969C91E5
:10028000D20111968C91981709F445C0992339F041
:10029000A80197012A193B094C095D0906C0A6016E
:1002A00095012E193F09400B510B57FD08C01182D3
:1002B0003382228224833583468357831DC081E0A5
:1002C00081833382228288279927DC01821B930B4A
:1002D000A40BB50B84839583A683B7830DC0220F2F
:1002E000331F441F551F24833583468357838281E0
:1002F000938101979383828324813581468157813D
:10030000DA01C9010197A109B1098F5F9F4FAF4F72
:10031000BF4328F30BC0918333822282EA0CFB1C7B
:100320000C1D1D1DE482F5820683178383E0808304
:10033000248135814681578157FF1AC0C901AA27F8
:1003400097FDA095BA2F81709070A070B0705695EF
:10035000479537952795822B932BA42BB52B848318
:100360009583A683B7838281938101969383828349
:10037000DF0101C0D201CD01CDB7DEB7E2E10C94BF
:10038000391FA0E2B0E0E7ECF1E00C94291F69838B
:100390007A838B839C832D833E834F835887E9E048
:1003A000EE2EF12CEC0EFD1ECE010196B7010E943F
:1003B000D2048E010F5E1F4FCE010596B8010E9438
:1003C000D2048A8991E089278A8BC701B801AE01DE
:1003D000475E5F4F0E9475000E94FD03A096E6E015
:1003E0000C94451FA0E2B0E0E8EFF1E00C94291F67
:1003F00069837A838B839C832D833E834F835887C5
:10040000F9E0EF2EF12CEC0EFD1ECE010196B701A6
:100410000E94D2048E010F5E1F4FCE010596B801D7
:100420000E94D204C701B801AE01475E5F4F0E942F
:1004300075000E94FD03A096E6E00C94451FA0E223
:10044000B0E0E5E2F2E00C941D1F69837A838B83B0
:100450009C832D833E834F835887CE010196BE0136
:10046000675F7F4F0E94D204CE010596BE016F5E8A
:100470007F4F0E94D2049985923088F0898982301A
:10048000C8F0943019F4823051F404C0843029F457
:10049000923081F485ED90E0C6C0923049F420E0BE
:1004A0009A858A89981321E02A87CE010996BBC0D4
:1004B000823049F420E09A858A89981321E02A8BBA
:1004C000CE014196B0C02D843E844F8458886D88FB
:1004D0007E888F88988CEE24FF248701AA24BB2471
:1004E000650140E050E060E070E0E0E0F0E0C10174
:1004F00081709070892BE9F0E60CF71C081D191D1E
:100500009A01AB012A0D3B1D4C1D5D1D80E090E062
:10051000A0E0B0E0E614F7040805190520F481E036
:1005200090E0A0E0B0E0BA01A901480F591F6A1F8E
:100530007B1FAA0CBB1CCC1CDD1C97FE08C081E0F5
:1005400090E0A0E0B0E0A82AB92ACA2ADB2A3196B6
:10055000E032F10549F0660C771C881C991C569412
:10056000479437942794C3CFFA85EA892B893C892D
:100570008B859C85280F391F2E5F3F4F17C0CA01FE
:1005800081709070892B61F016950795F794E79428
:1005900080E090E0A0E0B0E8E82AF92A0A2B1B2BC3
:1005A00076956795579547952F5F3F4F77FDE7CF36
:1005B0000CC0440F551F661F771F17FD4160EE0CDE
:1005C000FF1C001F111F21503040403090E05907A0
:1005D00090E0690790E4790760F32B8F3C8FDB0193
:1005E000CA018F779070A070B07080349105A1051A
:1005F000B10561F447FD0AC0E114F10401051105DC
:1006000029F0405C5F4F6F4F7F4F40781A8EFE1786
:1006100011F081E08A8F4D8F5E8F6F8F78A383E01A
:10062000898FCE0149960E94FD03A096E2E10C94C9
:10063000391FA8E1B0E0EFE1F3E00C94291F6983D2
:100640007A838B839C832D833E834F83588789E0F5
:10065000E82EF12CEC0EFD1ECE010196B7010E9492
:10066000D2048E010F5E1F4FCE010596B8010E9485
:10067000D2048985823040F08989823028F0C70110
:10068000B8010E944A0501C08FEF6896E6E00C941D
:10069000451FA8E1B0E0EFE4F3E00C94291F698363
:1006A0007A838B839C832D833E834F83588789E095
:1006B000E82EF12CEC0EFD1ECE010196B7010E9432
:1006C000D2048E010F5E1F4FCE010596B8010E9425
:1006D000D2048985823040F08989823028F0C701B0
:1006E000B8010E944A0501C08FEF6896E6E00C94BD
:1006F000451FA8E1B0E0EFE7F3E00C94291F698300
:100700007A838B839C832D833E834F83588789E034
:10071000E82EF12CEC0EFD1ECE010196B7010E94D1
:10072000D2048E010F5E1F4FCE010596B8010E94C4
:10073000D2048985823040F08989823028F0C7014F
:10074000B8010E944A0501C081E06896E6E00C9479
:10075000451FACE0B0E0EFEAF3E00C942D1F698395
:100760007A838B839C83CE010196BE016B5F7F4FA2
:100770000E94D2048D81823061F1823050F1843048
:1007800021F48E81882351F12EC02F81388537FDC9
:1007900020C06E812F3131051CF06623F9F023C093
:1007A0008EE190E0821B930B29853A854B855C8511
:1007B00004C056954795379527958A95D2F76623B5
:1007C000B1F050954095309521953F4F4F4F5F4F79
:1007D0000EC020E030E040E050E009C02FEF3FEFD6
:1007E0004FEF5FE704C020E030E040E050E8B9019F
:1007F000CA012C96E2E00C94491FDF92EF92FF921F
:100800000F931F93FC01E480F58006811781D1804E
:100810008081823048F480E090E0A0E1B0E0E82AF6
:10082000F92A0A2B1B2BA5C0843009F49FC0823003
:1008300021F4EE24FF24870105C0E114F104010531
:10084000110519F4E0E0F0E096C0628173819FEF3A
:10085000623879070CF05BC022E83FEF261B370BAC
:100860002A3131052CF020E030E040E050E02AC091
:10087000B801A701022E04C0769567955795479554
:100880000A94D2F781E090E0A0E0B0E004C0880FC5
:10089000991FAA1FBB1F2A95D2F70197A109B10979
:1008A0008E219F21A023B1230097A105B10521F03E
:1008B00081E090E0A0E0B0E09A01AB01282B392B59
:1008C0004A2B5B2BDA01C9018F779070A070B07052
:1008D00080349105A105B10539F427FF09C0205CDA
:1008E0003F4F4F4F5F4F04C0215C3F4F4F4F5F4F13
:1008F000E0E0F0E02030A0E03A07A0E04A07A0E402
:100900005A0710F0E1E0F0E079018A0127C0603871
:10091000710564F5FB01E158FF4FD801C7018F77DE
:100920009070A070B07080349105A105B10539F4C4
:10093000E7FE0DC080E490E0A0E0B0E004C08FE3EB
:1009400090E0A0E0B0E0E80EF91E0A1F1B1F17FFA1
:1009500005C016950795F794E794319687E01695AC
:100960000795F794E7948A95D1F705C0EE24FF2404
:100970008701EFEFF0E06E2F679566276795902F60
:100980009F77D794DD24D7948E2F8695492F462BB9
:10099000582F5D29B701CA011F910F91FF90EF9069
:1009A000DF900895FC01DB01408151812281622F9B
:1009B0006F7770E0221F2227221F9381892F880FD3
:1009C000822B282F30E0991F9927991F11969C930D
:1009D000119721153105A9F54115510561057105DD
:1009E00011F482E037C082E89FEF13969C938E93B8
:1009F00012979A01AB0167E0220F331F441F551F66
:100A00006A95D1F783E08C930DC0220F331F441FEA
:100A1000551F12968D919C911397019713969C9355
:100A20008E931297203080E0380780E0480780E4FA
:100A3000580758F314962D933D934D935C93179755
:100A400008952F3F310579F4411551056105710570
:100A500019F484E08C93089564FF03C081E08C93C3
:100A600012C01C9210C02F57304013963C932E9307
:100A7000129783E08C9387E0440F551F661F771F02
:100A80008A95D1F7706414964D935D936D937C9322
:100A9000179708951F93DC01FB019C91923008F495
:100AA00047C08081823008F443C0943051F41196DD
:100AB0001C91843099F58181682F70E0611B710968
:100AC0003FC0843021F0923031F48230B9F181811D
:100AD000882389F12DC011961C9111978230F1F075
:100AE00081811817D9F412962D913C911397828128
:100AF00093818217930794F028173907BCF0149656
:100B00008D919D910D90BC91A02D248135814681C0
:100B10005781281739074A075B0718F4112341F05A
:100B20000AC082179307A407B50740F4112319F0F0
:100B300061E070E005C06FEF7FEF02C060E070E041
:100B4000CB011F910895DF93CF93CDB7DEB7EAE3D2
:100B5000F0E08EE78083E7E3F0E080EF8083E4E37A
:100B6000F0E08FE38083E1E3F0E01082EBE3F0E07C
:100B70001082E8E3F0E080EF8083E5E3F0E01082AC
:100B8000E2E3F0E08CE38083CF91DF910895DF937F
:100B9000CF9300D000D000D0CDB7DEB78A836B836F
:100BA0004C8381E089838A81843008F0DAC08B81AC
:100BB000883008F0D6C08C81823008F0D2C08A819B
:100BC000282F30E03E832D838D819E8181309105D9
:100BD00009F443C02D813E81223031052CF48D81F2
:100BE0009E81009771F0BEC02D813E81223031057B
:100BF00009F45FC08D819E818330910509F485C021
:100C0000B1C08C818130A1F4AAE3B0E0EAE3F0E066
:100C10008081482F8B81282F30E081E090E0022EE8
:100C200002C0880F991F0A94E2F7842B8C939AC014
:100C3000AAE3B0E0EAE3F0E08081482F8B81282F1F
:100C400030E081E090E0022E02C0880F991F0A94E4
:100C5000E2F7809584238C9385C08C818130A1F448
:100C6000A7E3B0E0E7E3F0E08081482F8B81282FF5
:100C700030E081E090E0022E02C0880F991F0A94B4
:100C8000E2F7842B8C936EC0A7E3B0E0E7E3F0E0DB
:100C90008081482F8B81282F30E081E090E0022E68
:100CA00002C0880F991F0A94E2F7809584238C93E1
:100CB00059C08C818130A1F4A4E3B0E0E4E3F0E01A
:100CC0008081482F8B81282F30E081E090E0022E38
:100CD00002C0880F991F0A94E2F7842B8C9342C0BC
:100CE000A4E3B0E0E4E3F0E08081482F8B81282F7B
:100CF00030E081E090E0022E02C0880F991F0A9434
:100D0000E2F7809584238C932DC08C818130A1F4EF
:100D1000A1E3B0E0E1E3F0E08081482F8B81282F50
:100D200030E081E090E0022E02C0880F991F0A9403
:100D3000E2F7842B8C9316C0A1E3B0E0E1E3F0E08E
:100D40008081482F8B81282F30E081E090E0022EB7
:100D500002C0880F991F0A94E2F7809584238C9330
:100D600001C01982898126960FB6F894DEBF0FBEA6
:100D7000CDBFCF91DF910895DF93CF9300D000D006
:100D800000D0CDB7DEB78A836B834C8381E0898343
:100D90008A81843008F0DAC08B81883008F0D6C0B0
:100DA0008C81823008F0D2C08A81282F30E03E83C7
:100DB0002D838D819E818130910509F443C02D8161
:100DC0003E81223031052CF48D819E81009771F097
:100DD000BEC02D813E812230310509F45FC08D8176
:100DE0009E818330910509F485C0B1C08C8181302A
:100DF000A1F4ABE3B0E0EBE3F0E08081482F8B811E
:100E0000282F30E081E090E0022E02C0880F991F69
:100E10000A94E2F7842B8C939AC0ABE3B0E0EBE347
:100E2000F0E08081482F8B81282F30E081E090E036
:100E3000022E02C0880F991F0A94E2F7809584233E
:100E40008C9385C08C818130A1F4A8E3B0E0E8E305
:100E5000F0E08081482F8B81282F30E081E090E006
:100E6000022E02C0880F991F0A94E2F7842B8C93FC
:100E70006EC0A8E3B0E0E8E3F0E08081482F8B810A
:100E8000282F30E081E090E0022E02C0880F991FE9
:100E90000A94E2F7809584238C9359C08C81813029
:100EA000A1F4A5E3B0E0E5E3F0E08081482F8B8179
:100EB000282F30E081E090E0022E02C0880F991FB9
:100EC0000A94E2F7842B8C9342C0A5E3B0E0E5E3FB
:100ED000F0E08081482F8B81282F30E081E090E086
:100EE000022E02C0880F991F0A94E2F7809584238E
:100EF0008C932DC08C818130A1F4A2E3B0E0E2E3B9
:100F0000F0E08081482F8B81282F30E081E090E055
:100F1000022E02C0880F991F0A94E2F7842B8C934B
:100F200016C0A2E3B0E0E2E3F0E08081482F8B81BD
:100F3000282F30E081E090E0022E02C0880F991F38
:100F40000A94E2F7809584238C9301C019828981E9
:100F500026960FB6F894DEBF0FBECDBFCF91DF91BE
:100F60000895DF93CF93CDB7DEB727970FB6F894E8
:100F7000DEBF0FBECDBF8A836B835D834C8381E070
:100F800089838A81843008F075C08B81883008F0AD
:100F900071C08A81282F30E03F832E834E815F818C
:100FA0004130510559F18E819F818230910534F491
:100FB0002E813F812115310569F05DC04E815F8131
:100FC0004230510579F18E819F818330910509F47A
:100FD0003DC051C0E9E3F0E08081282F30E08B81F3
:100FE000882F90E0A90102C0559547958A95E2F7B0
:100FF000CA018170EC81FD8180833DC0E6E3F0E0B1
:101000008081282F30E08B81882F90E0A90102C0D9
:10101000559547958A95E2F7CA018170EC81FD816B
:10102000808329C0E3E3F0E08081282F30E08B81CA
:10103000882F90E0A90102C0559547958A95E2F75F
:10104000CA018170EC81FD81808315C0E0E3F0E08E
:101050008081282F30E08B81882F90E0A90102C089
:10106000559547958A95E2F7CA018170EC81FD811B
:10107000808301C01982898127960FB6F894DEBF5C
:101080000FBECDBFCF91DF910895DF93CF93CDB742
:10109000DEB72D970FB6F894DEBF0FBECDBF8A83A3
:1010A0006B8381E089838A81843008F06BC08B81F7
:1010B000823008F067C08A81282F30E03D872C8776
:1010C0008C859D858130910539F12C853D852230B7
:1010D00031052CF48C859D85009761F054C02C85DA
:1010E0003D852230310551F18C859D8583309105F8
:1010F000B9F149C08B81813041F4EAE3F0E090819D
:10110000EAE3F0E08FEF80833EC0EAE3F0E0208185
:10111000EAE3F0E0108237C08B81813041F4E7E3ED
:10112000F0E03081E7E3F0E08FEF80832CC0E7E36D
:10113000F0E08081E7E3F0E0108225C08B81813010
:1011400041F4E4E3F0E09081E4E3F0E08FEF8083AA
:101150001AC0E4E3F0E02081E4E3F0E0108213C081
:101160008B81813041F4E1E3F0E03081E1E3F0E0B4
:101170008FEF808308C0E1E3F0E08081E1E3F0E0FD
:10118000108201C0198289812D960FB6F894DEBFB6
:101190000FBECDBFCF91DF910895DF93CF93CDB731
:1011A000DEB72D970FB6F894DEBF0FBECDBF8A8392
:1011B0006B8381E089838A81843008F06BC08B81E6
:1011C000823008F067C08A81282F30E03D872C8765
:1011D0008C859D858130910539F12C853D852230A6
:1011E00031052CF48C859D85009761F054C02C85C9
:1011F0003D852230310551F18C859D8583309105E7
:10120000B9F149C08B81813041F4EBE3F0E090818A
:10121000EBE3F0E08FEF80833EC0EBE3F0E0208172
:10122000EBE3F0E0108237C08B81813041F4E8E3DA
:10123000F0E03081E8E3F0E08FEF80832CC0E8E35A
:10124000F0E08081E8E3F0E0108225C08B818130FE
:1012500041F4E5E3F0E09081E5E3F0E08FEF808397
:101260001AC0E5E3F0E02081E5E3F0E0108213C06E
:101270008B81813041F4E2E3F0E03081E2E3F0E0A1
:101280008FEF808308C0E2E3F0E08081E2E3F0E0EA
:10129000108201C0198289812D960FB6F894DEBFA5
:1012A0000FBECDBFCF91DF910895DF93CF9300D0D4
:1012B00000D000D0CDB7DEB78A837C836B8381E01A
:1012C00089838A818430D8F58A81282F30E03E8353
:1012D0002D838D819E8181309105E1F02D813E81AC
:1012E000223031052CF48D819E81009761F028C059
:1012F0002D813E8122303105A1F08D819E81833088
:101300009105B1F01DC0EBE3F0E08081EB81FC8141
:10131000808316C0E8E3F0E08081EB81FC8180836C
:101320000FC0E5E3F0E08081EB81FC81808308C0A1
:10133000E2E3F0E08081EB81FC81808301C01982CF
:10134000898126960FB6F894DEBF0FBECDBFCF9130
:10135000DF910895DF93CF9300D000D00F92CDB7E7
:10136000DEB78A836B8381E089838A81843098F534
:101370008A81282F30E03D832C838C819D818130B0
:101380009105D1F02C813D81223031052CF48C81E6
:101390009D81009761F020C02C813D812230310574
:1013A00081F08C819D818330910581F015C0EBE344
:1013B000F0E08B81808310C0E8E3F0E08B818083D4
:1013C0000BC0E5E3F0E08B81808306C0E2E3F0E050
:1013D0008B81808301C0198289810F900F900F90BB
:1013E0000F900F90CF91DF910895DF93CF93CDB7FA
:1013F000DEB727970FB6F894DEBF0FBECDBF9F8331
:101400008E831C8281E08B838E819F81009709F4FB
:101410006EC0EE81FF818FEF80831A8263C08A8164
:10142000882F90E0FC01EF50FF4F908181E0692F01
:1014300040E00E94BC0619823FC08981882F90E05D
:10144000FC01E351FF4F90819E012B5F3F4F83E0F2
:10145000692FA9010E94B1078D81882351F58A81E6
:10146000482F50E08981282F30E0CA01880F991F4A
:10147000880F991F820F931FFC01E352FF4F808159
:10148000EE81FF8180830FC08981882F90E0FC016D
:10149000E351FF4F90819E012B5F3F4F83E0692F07
:1014A000A9010E94B1078D81882371F381E08C83AB
:1014B00007C089818F5F89838981843008F4BDCF1B
:1014C0008A81882F90E0FC01EF50FF4F908181E0EE
:1014D000692F41E00E94BC068C81813049F08A81ED
:1014E0008F5F8A838A81843008F499CF01C01B8280
:1014F0008B8127960FB6F894DEBF0FBECDBFCF917C
:10150000DF9108950F931F93DF93CF93CDB7DEB78D
:10151000C654D0400FB6F894DEBF0FBECDBFFE015B
:10152000ED5BFF4F80E090E0ACE0B2E4808391831C
:10153000A283B3838E01015C1F4FFE01ED5BFF4F61
:10154000608171818281938120E030E04AEF54E430
:101550000E941F02DC01CB01F80180839183A283EA
:10156000B383FE01FF96608171818281938120E0C7
:1015700030E040E85FE30E94790388232CF481E0A7
:1015800090E09EAF8DAF46C0FE01FF9660817181F5
:101590008281938120E03FEF4FE757E40E941903D7
:1015A000181664F5FE01ED5BFF4F60817181828149
:1015B000938120E030E040E251E40E941F02DC0110
:1015C000CB01BC01CD010E944900DC01CB019EAFE3
:1015D0008DAF0FC088EC90E09CAF8BAF8BAD9CAD16
:1015E0000197F1F79CAF8BAF8DAD9EAD01979EAF8C
:1015F0008DAF8DAD9EAD009769F716C0FE01FF96C9
:1016000060817181828193810E944900DC01CB015C
:101610009EAF8DAF8DAD9EAD9AAF89AF89AD9AADBE
:101620000197F1F79AAF89AF80E061E040E00E9456
:10163000BC0680E060E040E00E94BC0682E00E94C0
:10164000B51080E062E041E00E94BC0680E090E0DE
:10165000A0E8BFE38DAB9EABAFABB8AF6DA97EA9E1
:101660008FA998AD20E030E04AEF54E40E941F02B9
:10167000DC01CB0189AB9AABABABBCAB69A97AA956
:101680008BA99CA920E030E040E85FE30E94790349
:1016900088232CF481E090E098AB8FA73FC069A924
:1016A0007AA98BA99CA920E03FEF4FE757E40E945D
:1016B000190318164CF56DA97EA98FA998AD20E0E5
:1016C00030E040E251E40E941F02DC01CB01BC018A
:1016D000CD010E944900DC01CB0198AB8FA70FC060
:1016E00088EC90E09EA78DA78DA59EA50197F1F7A8
:1016F0009EA78DA78FA598A9019798AB8FA78FA5B7
:1017000098A9009769F714C069A97AA98BA99CA91F
:101710000E944900DC01CB0198AB8FA78FA598A947
:101720009CA78BA78BA59CA50197F1F79CA78BA7DE
:1017300080E062E040E00E94BC0688E20E940B0D5F
:101740008CE00E940B0D80E090E0A0E8BFE38FA347
:1017500098A7A9A7BAA76FA178A589A59AA520E0FF
:1017600030E04AEF54E40E941F02DC01CB018BA35E
:101770009CA3ADA3BEA36BA17CA18DA19EA120E0E3
:1017800030E040E85FE30E94790388232CF481E095
:1017900090E09AA389A33FC06BA17CA18DA19EA1DB
:1017A00020E03FEF4FE757E40E94190318164CF56D
:1017B0006FA178A589A59AA520E030E040E251E428
:1017C0000E941F02DC01CB01BC01CD010E94490037
:1017D000DC01CB019AA389A30FC088EC90E098A309
:1017E0008F8F8F8D98A10197F1F798A38F8F89A183
:1017F0009AA101979AA389A389A19AA1009769F751
:1018000014C06BA17CA18DA19EA10E944900DC01A6
:10181000CB019AA389A389A19AA19E8F8D8F8D8DCB
:101820009E8D0197F1F79E8F8D8F81E00E940B0DA9
:1018300080E090E0A0E0B0E4898F9A8FAB8FBC8FFE
:10184000698D7A8D8B8D9C8D20E030E04AEF54E4D9
:101850000E941F02DC01CB018D8B9E8BAF8BB88F5A
:101860006D897E898F89988D20E030E040E85FE3C4
:101870000E94790388232CF481E090E09C8B8B8B71
:101880003FC06D897E898F89988D20E03FEF4FE7BB
:1018900057E40E94190318164CF5698D7A8D8B8DCB
:1018A0009C8D20E030E040E251E40E941F02DC0108
:1018B000CB01BC01CD010E944900DC01CB019C8B16
:1018C0008B8B0FC088EC90E09A8B898B89899A89E1
:1018D0000197F1F79A8B898B8B899C8901979C8B57
:1018E0008B8B8B899C89009769F714C06D897E89E1
:1018F0008F89988D0E944900DC01CB019C8B8B8BDA
:101900008B899C89988B8F878F8598890197F1F7B0
:10191000988B8F8786E00E940B0D80E090E0A0E816
:10192000BFE38B879C87AD87BE876B857C858D8564
:101930009E8520E030E04AEF54E40E941F02DC0163
:10194000CB018F839887A987BA876F81788589852E
:101950009A8520E030E040E85FE30E947903882325
:101960002CF481E090E09E838D833FC06F81788569
:1019700089859A8520E03FEF4FE757E40E941903DD
:1019800018164CF56B857C858D859E8520E030E0B2
:1019900040E251E40E941F02DC01CB01BC01CD01F9
:1019A0000E944900DC01CB019E838D830FC088EC2F
:1019B00090E09C838B838B819C810197F1F79C83C2
:1019C0008B838D819E8101979E838D838D819E81E6
:1019D000009769F714C06F81788589859A850E9480
:1019E0004900DC01CB019E838D838D819E819A838A
:1019F000898389819A810197F1F79A838983CA5BE8
:101A0000DF4F0FB6F894DEBF0FBECDBFCF91DF9191
:101A10001F910F910895DF93CF93CDB7DEB76D97E8
:101A20000FB6F894DEBF0FBECDBF8D8F80E061E0B2
:101A300040E00E94BC0680E060E040E00E94BC06FE
:101A40008D8D82958F700E94B51080E062E041E03C
:101A50000E94BC0680E090E0A0E8BFE3898F9A8FE7
:101A6000AB8FBC8F698D7A8D8B8D9C8D20E030E0A3
:101A70004AEF54E40E941F02DC01CB018D8B9E8B48
:101A8000AF8BB88F6D897E898F89988D20E030E08B
:101A900040E85FE30E94790388232CF481E090E022
:101AA0009C8B8B8B3FC06D897E898F89988D20E0C0
:101AB0003FEF4FE757E40E94190318164CF5698D64
:101AC0007A8D8B8D9C8D20E030E040E251E40E94C5
:101AD0001F02DC01CB01BC01CD010E944900DC01E9
:101AE000CB019C8B8B8B0FC088EC90E09A8B898B01
:101AF00089899A890197F1F79A8B898B8B899C89BF
:101B000001979C8B8B8B8B899C89009769F714C0FC
:101B10006D897E898F89988D0E944900DC01CB01F7
:101B20009C8B8B8B8B899C89988B8F878F859889D1
:101B30000197F1F7988B8F8780E062E040E00E9488
:101B4000BC068D8D0E94B51080E062E041E00E94ED
:101B5000BC0680E090E0A0E8BFE38B879C87AD8760
:101B6000BE876B857C858D859E8520E030E04AEFC1
:101B700054E40E941F02DC01CB018F839887A98760
:101B8000BA876F81788589859A8520E030E040E8C2
:101B90005FE30E94790388232CF481E090E09E8328
:101BA0008D833FC06F81788589859A8520E03FEFDE
:101BB0004FE757E40E94190318164CF56B857C8596
:101BC0008D859E8520E030E040E251E40E941F02B6
:101BD000DC01CB01BC01CD010E944900DC01CB013D
:101BE0009E838D830FC088EC90E09C838B838B81D8
:101BF0009C810197F1F79C838B838D819E81019756
:101C00009E838D838D819E81009769F714C06F81BB
:101C1000788589859A850E944900DC01CB019E83E5
:101C20008D838D819E819A83898389819A81019791
:101C3000F1F79A83898380E062E040E00E94BC066D
:101C40006D960FB6F894DEBF0FBECDBFCF91DF917A
:101C50000895DF93CF93CDB7DEB76D970FB6F894A5
:101C6000DEBF0FBECDBF8D8F80E061E041E00E94FE
:101C7000BC0680E060E040E00E94BC068D8D82954D
:101C80008F700E94B51080E062E041E00E94BC06C7
:101C900080E090E0A0E8BFE3898F9A8FAB8FBC8F84
:101CA000698D7A8D8B8D9C8D20E030E04AEF54E475
:101CB0000E941F02DC01CB018D8B9E8BAF8BB88FF6
:101CC0006D897E898F89988D20E030E040E85FE360
:101CD0000E94790388232CF481E090E09C8B8B8B0D
:101CE0003FC06D897E898F89988D20E03FEF4FE757
:101CF00057E40E94190318164CF5698D7A8D8B8D67
:101D00009C8D20E030E040E251E40E941F02DC01A3
:101D1000CB01BC01CD010E944900DC01CB019C8BB1
:101D20008B8B0FC088EC90E09A8B898B89899A897C
:101D30000197F1F79A8B898B8B899C8901979C8BF2
:101D40008B8B8B899C89009769F714C06D897E897C
:101D50008F89988D0E944900DC01CB019C8B8B8B75
:101D60008B899C89988B8F878F8598890197F1F74C
:101D7000988B8F8780E062E040E00E94BC068D8DEA
:101D80000E94B51080E062E041E00E94BC0680E065
:101D900090E0A0E8BFE38B879C87AD87BE876B850B
:101DA0007C858D859E8520E030E04AEF54E40E94DA
:101DB0001F02DC01CB018F839887A987BA876F81C7
:101DC000788589859A8520E030E040E85FE30E94CD
:101DD000790388232CF481E090E09E838D833FC0BB
:101DE0006F81788589859A8520E03FEF4FE757E43A
:101DF0000E94190318164CF56B857C858D859E8590
:101E000020E030E040E251E40E941F02DC01CB01FF
:101E1000BC01CD010E944900DC01CB019E838D8372
:101E20000FC088EC90E09C838B838B819C81019711
:101E3000F1F79C838B838D819E8101979E838D8397
:101E40008D819E81009769F714C06F81788589859F
:101E50009A850E944900DC01CB019E838D838D8190
:101E60009E819A83898389819A810197F1F79A8368
:101E7000898380E062E040E00E94BC066D960FB668
:101E8000F894DEBF0FBECDBFCF91DF910895DF93F1
:101E9000CF9300D00F92CDB7DEB79B838A83198290
:101EA0000EC08981282F30E08A819B81FC01E20FDE
:101EB000F31F80810E94290E89818F5F8983898128
:101EC000282F30E08A819B81FC01E20FF31F808183
:101ED000882339F70F900F900F90CF91DF910895DD
:101EE000DF93CF93CDB7DEB72F970FB6F894DEBF51
:101EF0000FBECDBF9F878E871A82198221C08E8523
:101F00009F852AE030E0B9010E94091F805D8B8324
:101F100029813A81CE010496FC01E20FF31F8B81E7
:101F200080838E859F852AE030E0B9010E94091FD9
:101F3000CB019F878E8789819A8101969A838983B5
:101F40008E859F850097D9F60FC029813A81CE01F1
:101F50000496FC01E20FF31F80810E94290E898103
:101F60009A8101979A83898389819A8199236CF751
:101F70002F960FB6F894DEBF0FBECDBFCF91DF9185
:101F80000895DF93CF9300D000D0CDB7DEB789831B
:101F90006A838981823031F089818130E1F48A81DC
:101FA0008031C8F48981282F30E03C832B838B81DA
:101FB0009C818130910531F02B813C8122303105AB
:101FC00031F009C08A8180580E940B0D04C08A81BB
:101FD00080540E940B0D0F900F900F900F90CF9197
:101FE000DF910895DF93CF93CDB7DEB72E970FB66D
:101FF000F894DEBF0FBECDBF81E00E940B0D80E0E4
:1020000090E0A0E8BFE38B879C87AD87BE876B8598
:102010007C858D859E8520E030E04AEF54E40E9467
:102020001F02DC01CB018F839887A987BA876F8154
:10203000788589859A8520E030E040E85FE30E945A
:10204000790388232CF481E090E09E838D833FC048
:102050006F81788589859A8520E03FEF4FE757E4C7
:102060000E94190318164CF56B857C858D859E851D
:1020700020E030E040E251E40E941F02DC01CB018D
:10208000BC01CD010E944900DC01CB019E838D8300
:102090000FC088EC90E09C838B838B819C8101979F
:1020A000F1F79C838B838D819E8101979E838D8325
:1020B0008D819E81009769F714C06F81788589852D
:1020C0009A850E944900DC01CB019E838D838D811E
:1020D0009E819A83898389819A810197F1F79A83F6
:1020E00089832E960FB6F894DEBF0FBECDBFCF9179
:1020F000DF910895DF93CF9300D000D000D0CDB70B
:10210000DEB79B838A836C834D832E838C81882FDB
:1021100090E00896880F991F880F991F880F991FC4
:102120000E940B0D19820EC08981282F30E08A8110
:102130009B81FC01E20FF31F80810E94290E89819F
:102140008F5F89838981883078F38D816E810E94C9
:10215000C10F8C810E94290E26960FB6F894DEBF1F
:102160000FBECDBFCF91DF910895DF93CF9300D005
:10217000CDB7DEB78A838A818170898380E063E08E
:1021800049810E94BC068A8186958170898380E09E
:1021900064E049810E94BC068A818695869581709B
:1021A000898380E065E049810E94BC068A8186952A
:1021B000869586958170898380E066E049810E94DA
:1021C000BC060F900F90CF91DF9108950F931F934E
:1021D000DF93CF93CDB7DEB7C657D0400FB6F89494
:1021E000DEBF0FBECDBFFE01EC58FF4F9183808351
:1021F000FE01EA58FF4F6083FE01EA58FF4F8081DD
:10220000813009F008C3FE01EE58FF4F1082F7C27B
:1022100082E062E041E00E94BC0682E063E040E0D0
:102220000E94BC0682E064E040E00E94BC0682E0BE
:1022300065E040E00E94BC06FE01E359FF4F80E0EC
:1022400090E0A0E2B1E480839183A283B3838E0106
:1022500007591F4FFE01E359FF4F60817181828151
:10226000938120E030E04AEF54E40E941F02DC0139
:10227000CB01F80180839183A283B383FE01E759E8
:10228000FF4F608171818281938120E030E040E8DE
:102290005FE30E947903882344F4FE01E959FF4F6C
:1022A00081E090E09183808364C0FE01E759FF4F95
:1022B000608171818281938120E03FEF4FE757E495
:1022C0000E94190318160CF043C0FE01E359FF4F9A
:1022D000608171818281938120E030E040E251E4AD
:1022E0000E941F02DC01CB018E0109591F4FBC0166
:1022F000CD010E944900DC01CB01F801918380836C
:102300001FC0FE01EB59FF4F88EC90E09183808362
:10231000FE01EB59FF4F808191810197F1F7FE019A
:10232000EB59FF4F91838083DE01A959BF4FFE0116
:10233000E959FF4F80819181019711969C938E936B
:10234000FE01E959FF4F808191810097D1F627C0A6
:102350008E0109591F4FFE01E759FF4F60817181BE
:10236000828193810E944900DC01CB01F8019183B5
:102370008083DE01AD59BF4FFE01E959FF4F8081D7
:1023800091818D939C93FE01ED59FF4F8081918146
:102390000197F1F7FE01ED59FF4F9183808382E0B1
:1023A00062E040E00E94BC0682E063E041E00E94FF
:1023B000BC0682E064E040E00E94BC0682E065E08A
:1023C00040E00E94BC06FE01E15AFF4F80E090E031
:1023D000A0E2B1E480839183A283B3838E01055A86
:1023E0001F4FFE01E15AFF4F60817181828193810D
:1023F00020E030E04AEF54E40E941F02DC01CB01F0
:10240000F80180839183A283B383FE01E55AFF4FD5
:10241000608171818281938120E030E040E85FE358
:102420000E947903882344F4FE01E75AFF4F81E0BC
:1024300090E09183808364C0FE01E55AFF4F608184
:1024400071818281938120E03FEF4FE757E40E9442
:10245000190318160CF043C0FE01E15AFF4F6081CA
:1024600071818281938120E030E040E251E40E945A
:102470001F02DC01CB018E01075A1F4FBC01CD01A9
:102480000E944900DC01CB01F801918380831FC0C9
:10249000FE01E95AFF4F88EC90E091838083FE01B2
:1024A000E95AFF4F808191810197F1F7FE01E95AC6
:1024B000FF4F91838083DE01A75ABF4FFE01E75A89
:1024C000FF4F80819181019711969C938E93FE011D
:1024D000E75AFF4F808191810097D1F627C08E0186
:1024E000075A1F4FFE01E55AFF4F608171818281BB
:1024F00093810E944900DC01CB01F8019183808324
:10250000DE01AB5ABF4FFE01E75AFF4F8081918138
:102510008D939C93FE01EB5AFF4F8081918101972F
:10252000F1F7FE01EB5AFF4F9183808382E062E076
:1025300040E00E94BC0682E063E040E00E94BC06EE
:1025400082E064E041E00E94BC0682E065E040E099
:102550000E94BC06FE01EF5AFF4F80E090E0A0E22F
:10256000B1E480839183A283B3838E01035B1F4F09
:10257000FE01EF5AFF4F608171818281938120E0DB
:1025800030E04AEF54E40E941F02DC01CB01F80165
:1025900080839183A283B383FE01E35BFF4F60815D
:1025A00071818281938120E030E040E85FE30E9406
:1025B0007903882344F4FE01E55BFF4F81E090E05E
:1025C0009183808364C0FE01E35BFF4F6081718172
:1025D0008281938120E03FEF4FE757E40E94190387
:1025E00018160CF043C0FE01EF5AFF4F6081718155
:1025F0008281938120E030E040E251E40E941F029A
:10260000DC01CB018E01055B1F4FBC01CD010E9497
:102610004900DC01CB01F801918380831FC0FE01DA
:10262000E75BFF4F88EC90E091838083FE01E75BDE
:10263000FF4F808191810197F1F7FE01E75BFF4F2A
:1026400091838083DE01A55BBF4FFE01E55BFF4FF9
:1026500080819181019711969C938E93FE01E55B99
:10266000FF4F808191810097D1F627C08E01055BD5
:102670001F4FFE01E35BFF4F608171818281938177
:102680000E944900DC01CB01F80191838083DE01C7
:10269000A95BBF4FFE01E55BFF4F808191818D9368
:1026A0009C93FE01E95BFF4F808191810197F1F7D7
:1026B000FE01E95BFF4F9183808382E062E040E0AE
:1026C0000E94BC0682E063E040E00E94BC0682E01B
:1026D00064E040E00E94BC0682E065E041E00E94C8
:1026E000BC06FE01ED5BFF4F80E090E0A0E2B1E4AC
:1026F00080839183A283B3838E01015C1F4FFE010F
:10270000ED5BFF4F608171818281938120E030E039
:102710004AEF54E40E941F02DC01CB01F8018083E0
:102720009183A283B383FE01FF96608171818281D0
:10273000938120E030E040E85FE30E947903882342
:102740002CF481E090E09EAF8DAF46C0FE01FF9675
:10275000608171818281938120E03FEF4FE757E4F0
:102760000E941903181664F5FE01ED5BFF4F6081AE
:1027700071818281938120E030E040E251E40E9447
:102780001F02DC01CB01BC01CD010E944900DC012C
:10279000CB019EAF8DAF0FC088EC90E09CAF8BAFAC
:1027A0008BAD9CAD0197F1F79CAF8BAF8DAD9EAD1E
:1027B00001979EAF8DAF8DAD9EAD009769F716C0A6
:1027C000FE01FF9660817181828193810E944900A0
:1027D000DC01CB019EAF8DAF8DAD9EAD9AAF89AFC1
:1027E00089AD9AAD0197F1F79AAF89AFDE01AE5886
:1027F000BF4FFE01EE58FF4F80818F5F8C93FE012B
:10280000EE58FF4FDE01AD58BF4F90818C91981765
:1028100008F4FECC38C2FE01EA58FF4F80818230B6
:1028200009F031C2FE01EE58FF4F108221C282E052
:1028300062E040E00E94BC0682E063E040E00E946B
:10284000BC0682E064E040E00E94BC0682E065E0F5
:1028500041E00E94BC0680E090E0A0E2B1E48DABD4
:102860009EABAFABB8AF6DA97EA98FA998AD20E0A4
:1028700030E04AEF54E40E941F02DC01CB0189AB37
:102880009AABABABBCAB69A97AA98BA99CA920E098
:1028900030E040E85FE30E94790388232CF481E074
:1028A00090E098AB8FA73FC069A97AA98BA99CA992
:1028B00020E03FEF4FE757E40E94190318164CF54C
:1028C0006DA97EA98FA998AD20E030E040E251E4E7
:1028D0000E941F02DC01CB01BC01CD010E94490016
:1028E000DC01CB0198AB8FA70FC088EC90E09EA7CE
:1028F0008DA78DA59EA50197F1F79EA78DA78FA502
:1029000098A9019798AB8FA78FA598A9009769F709
:1029100014C069A97AA98BA99CA90E944900DC016D
:10292000CB0198AB8FA78FA598A99CA78BA78BA548
:102930009CA50197F1F79CA78BA782E062E040E09D
:102940000E94BC0682E063E040E00E94BC0682E098
:1029500064E041E00E94BC0682E065E040E00E9445
:10296000BC0680E090E0A0E2B1E48FA398A7A9A7FD
:10297000BAA76FA178A589A59AA520E030E04AEF13
:1029800054E40E941F02DC01CB018BA39CA3ADA3E6
:10299000BEA36BA17CA18DA19EA120E030E040E808
:1029A0005FE30E94790388232CF481E090E09AA3EE
:1029B00089A33FC06BA17CA18DA19EA120E03FEF28
:1029C0004FE757E40E94190318164CF56FA178A53C
:1029D00089A59AA520E030E040E251E40E941F0260
:1029E000DC01CB01BC01CD010E944900DC01CB011F
:1029F0009AA389A30FC088EC90E098A38F8F8F8D46
:102A000098A10197F1F798A38F8F89A19AA10197B7
:102A10009AA389A389A19AA1009769F714C06BA111
:102A20007CA18DA19EA10E944900DC01CB019AA34B
:102A300089A389A19AA19E8F8D8F8D8D9E8D0197DF
:102A4000F1F79E8F8D8F82E062E040E00E94BC062D
:102A500082E063E041E00E94BC0682E064E040E086
:102A60000E94BC0682E065E040E00E94BC0680E077
:102A700090E0A0E2B1E4898F9A8FAB8FBC8F698D13
:102A80007A8D8B8D9C8D20E030E04AEF54E40E94DB
:102A90001F02DC01CB018D8B9E8BAF8BB88F6D89B4
:102AA0007E898F89988D20E030E040E85FE30E94C6
:102AB000790388232CF481E090E09C8B8B8B3FC0C2
:102AC0006D897E898F89988D20E03FEF4FE757E42D
:102AD0000E94190318164CF5698D7A8D8B8D9C8D8B
:102AE00020E030E040E251E40E941F02DC01CB0113
:102AF000BC01CD010E944900DC01CB019C8B8B8B7A
:102B00000FC088EC90E09A8B898B89899A8901970C
:102B1000F1F79A8B898B8B899C8901979C8B8B8B86
:102B20008B899C89009769F714C06D897E898F898C
:102B3000988D0E944900DC01CB019C8B8B8B8B898B
:102B40009C89988B8F878F8598890197F1F7988B4F
:102B50008F8782E062E041E00E94BC0682E063E091
:102B600040E00E94BC0682E064E040E00E94BC06B7
:102B700082E065E040E00E94BC0680E090E0A0E2D8
:102B8000B1E48B879C87AD87BE876B857C858D85FF
:102B90009E8520E030E04AEF54E40E941F02DC01F1
:102BA000CB018F839887A987BA876F8178858985BC
:102BB0009A8520E030E040E85FE30E9479038823B3
:102BC0002CF481E090E09E838D833FC06F817885F7
:102BD00089859A8520E03FEF4FE757E40E9419036B
:102BE00018164CF56B857C858D859E8520E030E040
:102BF00040E251E40E941F02DC01CB01BC01CD0187
:102C00000E944900DC01CB019E838D830FC088ECBC
:102C100090E09C838B838B819C810197F1F79C834F
:102C20008B838D819E8101979E838D838D819E8173
:102C3000009769F714C06F81788589859A850E940D
:102C40004900DC01CB019E838D838D819E819A8317
:102C5000898389819A810197F1F79A838983DE01BB
:102C6000AE58BF4FFE01EE58FF4F80818F5F8C93AF
:102C7000FE01EE58FF4FDE01AD58BF4F90818C91A1
:102C8000981708F4D4CDCA58DF4F0FB6F894DEBFBA
:102C90000FBECDBFCF91DF911F910F9108950F937C
:102CA0001F93DF93CF93CDB7DEB7C156D0400FB699
:102CB000F894DEBF0FBECDBF0E94A3050E94820A1A
:102CC000FE01EA5AFF4F10820E94F20F80E690E068
:102CD0000E94470FCE01885A9F4F0E94F50928C0D5
:102CE000CE01885A9F4F0E94F509FE01E85AFF4F16
:102CF00080818F3FE9F09091F60082E0692F0E9479
:102D0000C10F8AE20E94290E8091F600282F30E040
:102D1000FE01E85AFF4F4081CE01875A9F4FFC01C8
:102D2000E20FF31F40838091F6008F5F8093F600DF
:102D3000FE01E85AFF4F8081803391F6CE01875A19
:102D40009F4F0E94901EFE01E95AFF4F80830E9410
:102D5000F20FFE01E95AFF4F8081813009F007C26E
:102D600081E064E00E94C10F85E790E00E94470F78
:102D700082E064E00E94C10F8DE790E00E94470F5F
:102D8000FE01EF5AFF4F80E090E0AAE7B4E48083B1
:102D90009183A283B3838E01035B1F4FFE01EF5A21
:102DA000FF4F608171818281938120E030E04AEFA2
:102DB00054E40E941F02DC01CB01F801808391835F
:102DC000A283B383FE01E35BFF4F60817181828147
:102DD000938120E030E040E85FE30E94790388239C
:102DE00044F4FE01E55BFF4F81E090E09183808336
:102DF00064C0FE01E35BFF4F60817181828193813A
:102E000020E03FEF4FE757E40E94190318160CF03B
:102E100043C0FE01EF5AFF4F60817181828193812F
:102E200020E030E040E251E40E941F02DC01CB01CF
:102E30008E01055B1F4FBC01CD010E944900DC01E2
:102E4000CB01F801918380831FC0FE01E75BFF4F38
:102E500088EC90E091838083FE01E75BFF4F8081E7
:102E600091810197F1F7FE01E75BFF4F918380832A
:102E7000DE01A55BBF4FFE01E55BFF4F80819181C5
:102E8000019711969C938E93FE01E55BFF4F808125
:102E900091810097D1F627C08E01055B1F4FFE017F
:102EA000E35BFF4F60817181828193810E944900C1
:102EB000DC01CB01F80191838083DE01A95BBF4F68
:102EC000FE01E55BFF4F808191818D939C93FE0114
:102ED000E95BFF4F808191810197F1F7FE01E95B8A
:102EE000FF4F918380830E94F20FCE01885A9F4F3B
:102EF0000E94F50918C085E890E00E94470F82E023
:102F000060E00E94C10F81E990E00E94470F05C078
:102F1000CE01885A9F4F0E94F509FE01E85AFF4FE3
:102F200080818F3FA9F3FE01E85AFF4F80818133F2
:102F300031F0FE01E85AFF4F80818233E1F60E94B2
:102F4000F20F3FC082EA90E00E94470F82E060E00B
:102F50000E94C10F88EA90E00E94470FCE01885A74
:102F60009F4F0E94F50905C0CE01885A9F4F0E94CD
:102F7000F509FE01E85AFF4F80818F3FA9F30AC08F
:102F800082E060E041E00E94BC0682E061E040E057
:102F90000E94BC06FE01E85AFF4F8081813381F315
:102FA0000AC082E060E040E00E94BC0682E061E08E
:102FB00041E00E94BC06FE01E85AFF4F8081823347
:102FC00081F3FE01E85AFF4F8081813309F4BACFC3
:102FD0000E94F20F36C08FEA90E00E94470F2BC08C
:102FE000CE01885A9F4F0E94F509FE01E85AFF4F13
:102FF00080818F3F01F1FE01E85AFF4F80810E94DE
:10300000290EFE01EA5AFF4F8081282F30E0FE0191
:10301000E85AFF4F4081CE01835A9F4FFC01E20FD7
:10302000F31F4083DE01AA5ABF4FFE01EA5AFF4F49
:1030300080818F5F8C93FE01E85AFF4F808185323B
:1030400079F6FE01E85AFF4F8081823321F2FE01BA
:10305000E85AFF4F8081853209F0BDCF0E94F20F00
:103060001DC082EA90E00E94470F82E060E00E946B
:10307000C10F88EA90E00E94470FCE01885A9F4F07
:103080000E94F50905C0CE01885A9F4F0E94F5099C
:10309000FE01E85AFF4F80818F3FA9F3FE01E85AF5
:1030A000FF4F8081813369F1FE01E85AFF4F808133
:1030B0008233B9F626C0FE01E85AFF4F8081805363
:1030C000FE01E85AFF4F8083CE01835A9F4F0E9432
:1030D000C71EFE01E85AFF4F2081622F0E94E610B2
:1030E000CE01885A9F4F0E94F50905C0CE01885A2B
:1030F0009F4F0E94F509FE01E85AFF4F80818F3FE4
:10310000A9F3FE01E85AFF4F80818133A1F228C064
:10311000FE01E85AFF4F80818053FE01E85AFF4FBD
:103120008083CE01835A9F4F0E94901E882F90E08B
:10313000FE01E85AFF4F2081622F0E94E610CE0167
:10314000885A9F4F0E94F50905C0CE01885A9F4FAB
:103150000E94F509FE01E85AFF4F80818F3FA9F3D5
:10316000FE01E85AFF4F8081823391F29CC0FE013C
:10317000E95AFF4F8081823009F095C080E690E0E7
:103180000E94470F82E060E00E94C10F8EEB90E04A
:103190000E94470FFE01ED5BFF4F80E090E0AAE741
:1031A000B4E480839183A283B3838E01015C1F4FBB
:1031B000FE01ED5BFF4F608171818281938120E090
:1031C00030E04AEF54E40E941F02DC01CB01F80119
:1031D00080839183A283B383FE01FF966081718116
:1031E0008281938120E030E040E85FE30E94790330
:1031F00088232CF481E090E09EAF8DAF46C0FE01A5
:10320000FF96608171818281938120E03FEF4FE7DB
:1032100057E40E941903181664F5FE01ED5BFF4F99
:10322000608171818281938120E030E040E251E44D
:103230000E941F02DC01CB01BC01CD010E944900AC
:10324000DC01CB019EAF8DAF0FC088EC90E09CAF4E
:103250008BAF8BAD9CAD0197F1F79CAF8BAF8DAD74
:103260009EAD01979EAF8DAF8DAD9EAD009769F776
:1032700016C0FE01FF9660817181828193810E9458
:103280004900DC01CB019EAF8DAF8DAD9EAD9AAFF5
:1032900089AF89AD9AAD0197F1F79AAF89AF1092D6
:1032A000F6000E94F20F80E690E00E94470FCE01E8
:1032B000885A9F4F0E94F50928C0CE01885A9F4F17
:1032C0000E94F509FE01E85AFF4F80818F3FE9F027
:1032D0009091F60082E0692F0E94C10F8AE20E945D
:1032E000290E8091F600282F30E0FE01E85AFF4FAA
:1032F0004081CE01875A9F4FFC01E20FF31F4083AC
:103300008091F6008F5F8093F600FE01E85AFF4F30
:103310008081803391F6CE01875A9F4F0E94901E84
:10332000FE01E95AFF4F80830E94F20FFE01E95A25
:10333000FF4F8081813009F0C4C181E064E00E94C8
:10334000C10F85E790E00E94470F82E064E00E9491
:10335000C10F8DE790E00E94470F80E090E0AAE760
:10336000B4E48DAB9EABAFABB8AF6DA97EA98FA90E
:1033700098AD20E030E04AEF54E40E941F02DC01E7
:10338000CB0189AB9AABABABBCAB69A97AA98BA9D2
:103390009CA920E030E040E85FE30E9479038823A5
:1033A0002CF481E090E098AB8FA73FC069A97AA97F
:1033B0008BA99CA920E03FEF4FE757E40E94190337
:1033C00018164CF56DA97EA98FA998AD20E030E0C4
:1033D00040E251E40E941F02DC01CB01BC01CD019F
:1033E0000E944900DC01CB0198AB8FA70FC088EC8D
:1033F00090E09EA78DA78DA59EA50197F1F79EA7AA
:103400008DA78FA598A9019798AB8FA78FA598A98D
:10341000009769F714C069A97AA98BA99CA90E9491
:103420004900DC01CB0198AB8FA78FA598A99CA779
:103430008BA78BA59CA50197F1F79CA78BA70E9452
:10344000F20FCE01885A9F4F0E94F50918C085E8F7
:1034500090E00E94470F82E060E00E94C10F81E986
:1034600090E00E94470F05C0CE01885A9F4F0E94EE
:10347000F509FE01E85AFF4F80818F3FA9F3FE0155
:10348000E85AFF4F8081813331F0FE01E85AFF4F47
:1034900080818233E1F60E94F20F3FC082EA90E021
:1034A0000E94470F82E060E00E94C10F88EA90E02E
:1034B0000E94470FCE01885A9F4F0E94F50905C010
:1034C000CE01885A9F4F0E94F509FE01E85AFF4F2E
:1034D00080818F3FA9F30AC082E060E041E00E9452
:1034E000BC0682E061E040E00E94BC06FE01E85AB2
:1034F000FF4F8081813381F30AC082E060E040E0C9
:103500000E94BC0682E061E041E00E94BC06FE0130
:10351000E85AFF4F8081823381F3FE01E85AFF4F62
:103520008081813309F4BACF0E94F20F36C08FEA4E
:1035300090E00E94470F2BC0CE01885A9F4F0E94F7
:10354000F509FE01E85AFF4F80818F3F01F1FE012E
:10355000E85AFF4F80810E94290EFE01EA5AFF4F70
:103560008081282F30E0FE01E85AFF4F4081CE01D4
:10357000835A9F4FFC01E20FF31F4083DE01AA5ADA
:10358000BF4FFE01EA5AFF4F80818F5F8C93FE018F
:10359000E85AFF4F8081853279F6FE01E85AFF4FE5
:1035A0008081823321F2FE01E85AFF4F808185320B
:1035B00009F0BDCF0E94F20F1DC082EA90E00E9488
:1035C000470F82E060E00E94C10F88EA90E00E940D
:1035D000470FCE01885A9F4F0E94F50905C0CE01C2
:1035E000885A9F4F0E94F509FE01E85AFF4F8081DB
:1035F0008F3FA9F3FE01E85AFF4F8081813369F1C3
:10360000FE01E85AFF4F80818233B9F626C0FE01E1
:10361000E85AFF4F80818053FE01E85AFF4F8083B4
:10362000CE01835A9F4F0E94C71EFE01E85AFF4FEA
:103630002081622F0E94E610CE01885A9F4F0E947F
:10364000F50905C0CE01885A9F4F0E94F509FE0179
:10365000E85AFF4F80818F3FA9F3FE01E85AFF4FE0
:1036600080818133A1F226C0FE01E85AFF4F80819C
:103670008053FE01E85AFF4F8083CE01835A9F4F4B
:103680000E94C71EFE01E85AFF4F2081622F0E9450
:10369000E610CE01885A9F4F0E94F50905C0CE0161
:1036A000885A9F4F0E94F509FE01E85AFF4F80811A
:1036B0008F3FA9F3FE01E85AFF4F80818233A1F2C8
:1036C00085C0FE01E95AFF4F8081823009F07EC03B
:1036D00080E690E00E94470F82E060E00E94C10F08
:1036E0008EEB90E00E94470F80E090E0AAE7B4E400
:1036F0008FA398A7A9A7BAA76FA178A589A59AA50E
:1037000020E030E04AEF54E40E941F02DC01CB01CC
:103710008BA39CA3ADA3BEA36BA17CA18DA19EA1F5
:1037200020E030E040E85FE30E94790388232CF436
:1037300081E090E09AA389A33FC06BA17CA18DA1F9
:103740009EA120E03FEF4FE757E40E9419031816AF
:103750004CF56FA178A589A59AA520E030E040E25C
:1037600051E40E941F02DC01CB01BC01CD010E948B
:103770004900DC01CB019AA389A30FC088EC90E03B
:1037800098A38F8F8F8D98A10197F1F798A38F8FB2
:1037900089A19AA101979AA389A389A19AA10097C7
:1037A00069F714C06BA17CA18DA19EA10E94490064
:1037B000DC01CB019AA389A389A19AA19E8F8D8F49
:1037C0008D8D9E8D0197F1F79E8F8D8F1092F60053
:1037D0000E94F20F80E690E00E94470FCE01885AC7
:1037E0009F4F0E94F50928C0CE01885A9F4F0E9422
:1037F000F509FE01E85AFF4F80818F3FE9F0909173
:10380000F60082E0692F0E94C10F8AE20E94290E11
:103810008091F600282F30E0FE01E85AFF4F4081EA
:10382000CE01875A9F4FFC01E20FF31F4083809126
:10383000F6008F5F8093F600FE01E85AFF4F80810B
:10384000803391F6CE01875A9F4F0E94901EFE0151
:10385000E95AFF4F80830E94F20FFE01E95AFF4FA1
:103860008081813009F0C3C181E064E00E94C10F12
:1038700085E790E00E94470F82E064E00E94C10F5C
:103880008DE790E00E94470F80E090E0AAE7B4E463
:10389000898F9A8FAB8FBC8F698D7A8D8B8D9C8D24
:1038A00020E030E04AEF54E40E941F02DC01CB012B
:1038B0008D8B9E8BAF8BB88F6D897E898F89988D0C
:1038C00020E030E040E85FE30E94790388232CF495
:1038D00081E090E09C8B8B8B3FC06D897E898F89C6
:1038E000988D20E03FEF4FE757E40E941903181628
:1038F0004CF5698D7A8D8B8D9C8D20E030E040E217
:1039000051E40E941F02DC01CB01BC01CD010E94E9
:103910004900DC01CB019C8B8B8B0FC088EC90E0C5
:103920009A8B898B89899A890197F1F79A8B898B70
:103930008B899C8901979C8B8B8B8B899C890097A9
:1039400069F714C06D897E898F89988D0E9449001E
:10395000DC01CB019C8B8B8B8B899C89988B8F870F
:103960008F8598890197F1F7988B8F870E94F20FC6
:10397000CE01885A9F4F0E94F50918C085E890E053
:103980000E94470F82E060E00E94C10F81E990E051
:103990000E94470F05C0CE01885A9F4F0E94F5092B
:1039A000FE01E85AFF4F80818F3FA9F3FE01E85ADC
:1039B000FF4F8081813331F0FE01E85AFF4F808153
:1039C0008233E1F60E94F20F3FC082EA90E00E944B
:1039D000470F82E060E00E94C10F88EA90E00E94F9
:1039E000470FCE01885A9F4F0E94F50905C0CE01AE
:1039F000885A9F4F0E94F509FE01E85AFF4F8081C7
:103A00008F3FA9F30AC082E060E041E00E94BC065B
:103A100082E061E040E00E94BC06FE01E85AFF4FF0
:103A20008081813381F30AC082E060E040E00E943F
:103A3000BC0682E061E041E00E94BC06FE01E85A5B
:103A4000FF4F8081823381F3FE01E85AFF4F80816E
:103A5000813309F4BACF0E94F20F36C08FEA90E0AA
:103A60000E94470F2BC0CE01885A9F4F0E94F50934
:103A7000FE01E85AFF4F80818F3F01F1FE01E85AB5
:103A8000FF4F80810E94290EFE01EA5AFF4F80817C
:103A9000282F30E0FE01E85AFF4F4081CE01835AC3
:103AA0009F4FFC01E20FF31F4083DE01AA5ABF4F74
:103AB000FE01EA5AFF4F80818F5F8C93FE01E85A26
:103AC000FF4F8081853279F6FE01E85AFF4F8081F1
:103AD000823321F2FE01E85AFF4F8081853209F0DE
:103AE000BDCF0E94F20F1DC082EA90E00E94470FF6
:103AF00082E060E00E94C10F88EA90E00E94470FD8
:103B0000CE01885A9F4F0E94F50905C0CE01885A00
:103B10009F4F0E94F509FE01E85AFF4F80818F3FB9
:103B2000A9F3FE01E85AFF4F8081813369F1FE015C
:103B3000E85AFF4F80818233B9F626C0FE01E85A69
:103B4000FF4F80818053FE01E85AFF4F8083CE01F2
:103B5000835A9F4F0E94C71EFE01E85AFF4F2081E3
:103B6000622F0E94E610CE01885A9F4F0E94F509ED
:103B700005C0CE01885A9F4F0E94F509FE01E85A00
:103B8000FF4F80818F3FA9F3FE01E85AFF4F8081EC
:103B90008133A1F226C0FE01E85AFF4F8081805395
:103BA000FE01E85AFF4F8083CE01835A9F4F0E9447
:103BB000C71EFE01E85AFF4F2081622F0E94E610C7
:103BC000CE01885A9F4F0E94F50905C0CE01885A40
:103BD0009F4F0E94F509FE01E85AFF4F80818F3FF9
:103BE000A9F3FE01E85AFF4F80818233A1F2FE0162
:103BF000E95AFF4F8081823009F084C080E690E06E
:103C00000E94470F82E060E00E94C10F8EEB90E0BF
:103C10000E94470F80E090E0AAE7B4E48B879C877E
:103C2000AD87BE876B857C858D859E8520E030E0E5
:103C30004AEF54E40E941F02DC01CB018F83988776
:103C4000A987BA876F81788589859A8520E030E0D9
:103C500040E85FE30E94790388232CF481E090E040
:103C60009E838D833FC06F81788589859A8520E00A
:103C70003FEF4FE757E40E94190318164CF56B8588
:103C80007C858D859E8520E030E040E251E40E94F5
:103C90001F02DC01CB01BC01CD010E944900DC0107
:103CA000CB019E838D830FC088EC90E09C838B8337
:103CB0008B819C810197F1F79C838B838D819E8101
:103CC00001979E838D838D819E81009769F714C033
:103CD0006F81788589859A850E944900DC01CB0136
:103CE0009E838D838D819E819A83898389819A8128
:103CF0000197F1F79A8389830E94F20F8DEC90E08F
:103D00000E94470F80E090E0CF59DF4F0FB6F89444
:103D1000DEBF0FBECDBFCF91DF911F910F910895F0
:103D2000DF93CF9300D00F92CDB7DEB79A8389830C
:103D3000E981FA818081813309F589819A81FC01C9
:103D4000319680818233B9F489819A81FC0132965F
:103D50008081833369F489819A81FC013396808163
:103D6000843319F481E08B830BC082E08B8308C01D
:103D700082E08B8305C082E08B8302C082E08B836C
:103D80008B810F900F900F90CF91DF910895DF936B
:103D9000CF9300D000D00F92CDB7DEB79D838C8338
:103DA0001A8219821B8220C089819A819C01220F6C
:103DB000331FC901880F991F880F991FA901480F48
:103DC000591F8B81282F30E08C819D81FC01E20FEF
:103DD000F31F8081882F90E0840F951FC0979A83EE
:103DE00089838B818F5F8B838B81282F30E08C813F
:103DF0009D81FC01E20FF31F80818532A9F6898144
:103E00009A810F900F900F900F900F90CF91DF91AC
:103E10000895AA1BBB1B51E107C0AA1FBB1FA61711
:103E2000B70710F0A61BB70B881F991F5A95A9F763
:103E300080959095BC01CD0108952F923F924F92AD
:103E40005F926F927F928F929F92AF92BF92CF922A
:103E5000DF92EF92FF920F931F93CF93DF93CDB733
:103E6000DEB7CA1BDB0B0FB6F894DEBF0FBECDBFAB
:103E700009942A88398848885F846E847D848C847C
:103E80009B84AA84B984C884DF80EE80FD800C8185
:103E90001B81AA81B981CE0FD11D0FB6F894DEBF68
:0C3EA0000FBECDBFED010895F894FFCFD8
:103EAC00454E54455220594F55455220504153537D
:103EBC00574F52440057656C636F6D65004D6F68CA
:103ECC00616D656400312D204443204D4F544F5299
:103EDC0000322D2053544550504552204D4F544FD5
:103EEC005200312D43572000322D204343570045BB
:103EFC006E74657220416E67656C203D20005772B0
:103F0C006F6E672050617373776F726400526566D1
:103F1C00757365640000000000000000003738393C
:103F2C002F3435362A3132332D25303D2B02030404
:063F3C0005040506070064
:00000001FF
